{
    "_format": "hh-sol-artifact-1",
    "contractName": "WeRsvp",
    "sourceName": "contracts/WeRsvp.sol",
    "abi": [
        {
            "anonymous": false,
            "inputs": [
                {
                    "indexed": false,
                    "internalType": "bytes32",
                    "name": "eventId",
                    "type": "bytes32"
                },
                {
                    "indexed": false,
                    "internalType": "address",
                    "name": "registrantAddress",
                    "type": "address"
                }
            ],
            "name": "AttendeeConfirmed",
            "type": "event"
        },
        {
            "anonymous": false,
            "inputs": [
                {
                    "indexed": false,
                    "internalType": "bytes32",
                    "name": "eventId",
                    "type": "bytes32"
                },
                {
                    "indexed": false,
                    "internalType": "address",
                    "name": "creatorAddress",
                    "type": "address"
                },
                {
                    "indexed": false,
                    "internalType": "uint256",
                    "name": "eventStartTimestamp",
                    "type": "uint256"
                },
                {
                    "indexed": false,
                    "internalType": "uint256",
                    "name": "eventEndTimestamp",
                    "type": "uint256"
                },
                {
                    "indexed": false,
                    "internalType": "uint256",
                    "name": "maxCapacity",
                    "type": "uint256"
                },
                {
                    "indexed": false,
                    "internalType": "uint256",
                    "name": "deposit",
                    "type": "uint256"
                },
                {
                    "indexed": false,
                    "internalType": "string",
                    "name": "eventDataCID",
                    "type": "string"
                }
            ],
            "name": "NewEventCreated",
            "type": "event"
        },
        {
            "anonymous": false,
            "inputs": [
                {
                    "indexed": false,
                    "internalType": "bytes32",
                    "name": "eventId",
                    "type": "bytes32"
                },
                {
                    "indexed": false,
                    "internalType": "address",
                    "name": "registrantAddress",
                    "type": "address"
                }
            ],
            "name": "NewRSVPcreated",
            "type": "event"
        },
        {
            "anonymous": false,
            "inputs": [
                {
                    "indexed": false,
                    "internalType": "bytes32",
                    "name": "eventID",
                    "type": "bytes32"
                }
            ],
            "name": "UnclaimedDepositsWithdrawn",
            "type": "event"
        },
        {
            "inputs": [
                {
                    "internalType": "bytes32",
                    "name": "_eventId",
                    "type": "bytes32"
                }
            ],
            "name": "confirmAllAttendees",
            "outputs": [],
            "stateMutability": "nonpayable",
            "type": "function"
        },
        {
            "inputs": [
                {
                    "internalType": "bytes32",
                    "name": "_eventId",
                    "type": "bytes32"
                },
                {
                    "internalType": "address",
                    "name": "_attendee",
                    "type": "address"
                }
            ],
            "name": "confirmAttendee",
            "outputs": [],
            "stateMutability": "nonpayable",
            "type": "function"
        },
        {
            "inputs": [
                {
                    "internalType": "uint256",
                    "name": "_eventStartTimestamp",
                    "type": "uint256"
                },
                {
                    "internalType": "uint256",
                    "name": "_eventEndTimestamp",
                    "type": "uint256"
                },
                {
                    "internalType": "uint256",
                    "name": "_deposit",
                    "type": "uint256"
                },
                {
                    "internalType": "uint256",
                    "name": "_maxCapacity",
                    "type": "uint256"
                },
                {
                    "internalType": "string",
                    "name": "_eventDataCID",
                    "type": "string"
                }
            ],
            "name": "createNewEvent",
            "outputs": [],
            "stateMutability": "nonpayable",
            "type": "function"
        },
        {
            "inputs": [
                {
                    "internalType": "bytes32",
                    "name": "_eventId",
                    "type": "bytes32"
                }
            ],
            "name": "createNewRsvp",
            "outputs": [],
            "stateMutability": "payable",
            "type": "function"
        },
        {
            "inputs": [
                {
                    "internalType": "bytes32",
                    "name": "",
                    "type": "bytes32"
                }
            ],
            "name": "eventsMap",
            "outputs": [
                {
                    "internalType": "bytes32",
                    "name": "eventId",
                    "type": "bytes32"
                },
                {
                    "internalType": "string",
                    "name": "eventDataCID",
                    "type": "string"
                },
                {
                    "internalType": "address",
                    "name": "eventOwner",
                    "type": "address"
                },
                {
                    "internalType": "uint256",
                    "name": "eventStartTimestamp",
                    "type": "uint256"
                },
                {
                    "internalType": "uint256",
                    "name": "eventEndTimestamp",
                    "type": "uint256"
                },
                {
                    "internalType": "uint256",
                    "name": "deposit",
                    "type": "uint256"
                },
                {
                    "internalType": "uint256",
                    "name": "maxCapacity",
                    "type": "uint256"
                },
                {
                    "internalType": "bool",
                    "name": "refundPaidOut",
                    "type": "bool"
                }
            ],
            "stateMutability": "view",
            "type": "function"
        },
        {
            "inputs": [
                {
                    "internalType": "bytes32",
                    "name": "_eventId",
                    "type": "bytes32"
                }
            ],
            "name": "withdrawUnclaimedDeposits",
            "outputs": [],
            "stateMutability": "nonpayable",
            "type": "function"
        }
    ],
    "bytecode": "0x608060405234801561001057600080fd5b506120df806100206000396000f3fe6080604052600436106100555760003560e01c80636dcdf2cd1461005a5780637974757114610083578063acdbe012146100ac578063b0ca5283146100d5578063c945191a146100f1578063d90974af14610135575b600080fd5b34801561006657600080fd5b50610081600480360381019061007c9190611119565b61015e565b005b34801561008f57600080fd5b506100aa60048036038101906100a59190611159565b610626565b005b3480156100b857600080fd5b506100d360048036038101906100ce9190611159565b6108d1565b005b6100ef60048036038101906100ea9190611159565b6109ed565b005b3480156100fd57600080fd5b5061011860048036038101906101139190611159565b610c54565b60405161012c989796959493929190611268565b60405180910390f35b34801561014157600080fd5b5061015c6004803603810190610157919061137e565b610d51565b005b600080600084815260200190815260200160002090508060020160009054906101000a900473ffffffffffffffffffffffffffffffffffffffff1673ffffffffffffffffffffffffffffffffffffffff163373ffffffffffffffffffffffffffffffffffffffff1614610206576040517f08c379a00000000000000000000000000000000000000000000000000000000081526004016101fd90611464565b60405180910390fd5b600080600090505b82600701805490508110156102e7578373ffffffffffffffffffffffffffffffffffffffff1683600701828154811061024a57610249611484565b5b9060005260206000200160009054906101000a900473ffffffffffffffffffffffffffffffffffffffff1673ffffffffffffffffffffffffffffffffffffffff16036102d4578260070181815481106102a6576102a5611484565b5b9060005260206000200160009054906101000a900473ffffffffffffffffffffffffffffffffffffffff1691505b80806102df906114e2565b91505061020e565b508273ffffffffffffffffffffffffffffffffffffffff168173ffffffffffffffffffffffffffffffffffffffff1614610356576040517f08c379a000000000000000000000000000000000000000000000000000000000815260040161034d90611576565b60405180910390fd5b60005b8260080180549050811015610429578373ffffffffffffffffffffffffffffffffffffffff1683600801828154811061039557610394611484565b5b9060005260206000200160009054906101000a900473ffffffffffffffffffffffffffffffffffffffff1673ffffffffffffffffffffffffffffffffffffffff1603610416576040517f08c379a000000000000000000000000000000000000000000000000000000000815260040161040d906115e2565b60405180910390fd5b8080610421906114e2565b915050610359565b50600015158260090160009054906101000a900460ff16151514610482576040517f08c379a00000000000000000000000000000000000000000000000000000000081526004016104799061164e565b60405180910390fd5b81600801839080600181540180825580915050600190039060005260206000200160009091909190916101000a81548173ffffffffffffffffffffffffffffffffffffffff021916908373ffffffffffffffffffffffffffffffffffffffff16021790555060008373ffffffffffffffffffffffffffffffffffffffff1683600501546040516105119061169f565b60006040518083038185875af1925050503d806000811461054e576040519150601f19603f3d011682016040523d82523d6000602084013e610553565b606091505b50509050806105a657826008018054806105705761056f6116b4565b5b6001900381819060005260206000200160006101000a81549073ffffffffffffffffffffffffffffffffffffffff021916905590555b806105e6576040517f08c379a00000000000000000000000000000000000000000000000000000000081526004016105dd9061172f565b60405180910390fd5b7f3774216d9ccae81e2d95a76e252cf8e445d632f94b4697bea33d4568982f3336858560405161061792919061174f565b60405180910390a15050505050565b600080600083815260200190815260200160002090508060090160009054906101000a900460ff161561068e576040517f08c379a00000000000000000000000000000000000000000000000000000000081526004016106859061164e565b60405180910390fd5b806004015462093a80426106a29190611778565b10156106e3576040517f08c379a00000000000000000000000000000000000000000000000000000000081526004016106da906117f8565b60405180910390fd5b8060020160009054906101000a900473ffffffffffffffffffffffffffffffffffffffff1673ffffffffffffffffffffffffffffffffffffffff163373ffffffffffffffffffffffffffffffffffffffff1614610775576040517f08c379a000000000000000000000000000000000000000000000000000000000815260040161076c9061188a565b60405180910390fd5b60008160080180549050826007018054905061079191906118aa565b905060008260050154826107a591906118de565b905060018360090160006101000a81548160ff02191690831515021790555060003373ffffffffffffffffffffffffffffffffffffffff16826040516107ea9061169f565b60006040518083038185875af1925050503d8060008114610827576040519150601f19603f3d011682016040523d82523d6000602084013e61082c565b606091505b50509050806108535760018460090160006101000a81548160ff0219169083151502179055505b80610893576040517f08c379a000000000000000000000000000000000000000000000000000000000815260040161088a90611992565b60405180910390fd5b7ff44a52abf941399676dcb8a1df017068d76a870eab69e62d00c4eca9f6c8e792856040516108c291906119b2565b60405180910390a15050505050565b600080600083815260200190815260200160002090508060020160009054906101000a900473ffffffffffffffffffffffffffffffffffffffff1673ffffffffffffffffffffffffffffffffffffffff163373ffffffffffffffffffffffffffffffffffffffff1614610979576040517f08c379a000000000000000000000000000000000000000000000000000000000815260040161097090611464565b60405180910390fd5b60005b81600701805490508110156109e8576109d5838360070183815481106109a5576109a4611484565b5b9060005260206000200160009054906101000a900473ffffffffffffffffffffffffffffffffffffffff1661015e565b80806109e0906114e2565b91505061097c565b505050565b6000806000838152602001908152602001600020905080600501543414610a49576040517f08c379a0000000000000000000000000000000000000000000000000000000008152600401610a4090611a19565b60405180910390fd5b8060040154421115610a90576040517f08c379a0000000000000000000000000000000000000000000000000000000008152600401610a8790611a85565b60405180910390fd5b806006015481600701805490501115610ade576040517f08c379a0000000000000000000000000000000000000000000000000000000008152600401610ad590611b17565b60405180910390fd5b60005b8160070180549050811015610bb1573373ffffffffffffffffffffffffffffffffffffffff16826007018281548110610b1d57610b1c611484565b5b9060005260206000200160009054906101000a900473ffffffffffffffffffffffffffffffffffffffff1673ffffffffffffffffffffffffffffffffffffffff1603610b9e576040517f08c379a0000000000000000000000000000000000000000000000000000000008152600401610b9590611b83565b60405180910390fd5b8080610ba9906114e2565b915050610ae1565b5080600701339080600181540180825580915050600190039060005260206000200160009091909190916101000a81548173ffffffffffffffffffffffffffffffffffffffff021916908373ffffffffffffffffffffffffffffffffffffffff1602179055507fe3fc8829d97005c085e41dad5e602371a8ceb3ee82f8e58ff29374f6d52d5a8b8233604051610c4892919061174f565b60405180910390a15050565b6000602052806000526040600020600091509050806000015490806001018054610c7d90611bd2565b80601f0160208091040260200160405190810160405280929190818152602001828054610ca990611bd2565b8015610cf65780601f10610ccb57610100808354040283529160200191610cf6565b820191906000526020600020905b815481529060010190602001808311610cd957829003601f168201915b5050505050908060020160009054906101000a900473ffffffffffffffffffffffffffffffffffffffff16908060030154908060040154908060050154908060060154908060090160009054906101000a900460ff16905088565b6000333088888888604051602001610d6e96959493929190611c6c565b60405160208183030381529060405280519060200120905060008060008381526020019081526020016000206003015414610dde576040517f08c379a0000000000000000000000000000000000000000000000000000000008152600401610dd590611d28565b60405180910390fd5b60608060405180610140016040528084815260200186868080601f016020809104026020016040519081016040528093929190818152602001838380828437600081840152601f19601f8201169050808301925050505050505081526020013373ffffffffffffffffffffffffffffffffffffffff1681526020018a815260200189815260200188815260200187815260200183815260200182815260200160001515815250600080858152602001908152602001600020600082015181600001556020820151816001019081610eb59190611f23565b5060408201518160020160006101000a81548173ffffffffffffffffffffffffffffffffffffffff021916908373ffffffffffffffffffffffffffffffffffffffff160217905550606082015181600301556080820151816004015560a0820151816005015560c0820151816006015560e0820151816007019080519060200190610f41929190610fd4565b50610100820151816008019080519060200190610f5f929190610fd4565b506101208201518160090160006101000a81548160ff0219169083151502179055509050507f9c1a43dce4ba4b3b7fda93a197fbf8b4886da206e61a2301565b967bfa111e6383338b8b8a8c8b8b604051610fc1989796959493929190612031565b60405180910390a1505050505050505050565b82805482825590600052602060002090810192821561104d579160200282015b8281111561104c5782518260006101000a81548173ffffffffffffffffffffffffffffffffffffffff021916908373ffffffffffffffffffffffffffffffffffffffff16021790555091602001919060010190610ff4565b5b50905061105a919061105e565b5090565b5b8082111561107757600081600090555060010161105f565b5090565b600080fd5b600080fd5b6000819050919050565b61109881611085565b81146110a357600080fd5b50565b6000813590506110b58161108f565b92915050565b600073ffffffffffffffffffffffffffffffffffffffff82169050919050565b60006110e6826110bb565b9050919050565b6110f6816110db565b811461110157600080fd5b50565b600081359050611113816110ed565b92915050565b600080604083850312156111305761112f61107b565b5b600061113e858286016110a6565b925050602061114f85828601611104565b9150509250929050565b60006020828403121561116f5761116e61107b565b5b600061117d848285016110a6565b91505092915050565b61118f81611085565b82525050565b600081519050919050565b600082825260208201905092915050565b60005b838110156111cf5780820151818401526020810190506111b4565b60008484015250505050565b6000601f19601f8301169050919050565b60006111f782611195565b61120181856111a0565b93506112118185602086016111b1565b61121a816111db565b840191505092915050565b61122e816110db565b82525050565b6000819050919050565b61124781611234565b82525050565b60008115159050919050565b6112628161124d565b82525050565b60006101008201905061127e600083018b611186565b8181036020830152611290818a6111ec565b905061129f6040830189611225565b6112ac606083018861123e565b6112b9608083018761123e565b6112c660a083018661123e565b6112d360c083018561123e565b6112e060e0830184611259565b9998505050505050505050565b6112f681611234565b811461130157600080fd5b50565b600081359050611313816112ed565b92915050565b600080fd5b600080fd5b600080fd5b60008083601f84011261133e5761133d611319565b5b8235905067ffffffffffffffff81111561135b5761135a61131e565b5b60208301915083600182028301111561137757611376611323565b5b9250929050565b60008060008060008060a0878903121561139b5761139a61107b565b5b60006113a989828a01611304565b96505060206113ba89828a01611304565b95505060406113cb89828a01611304565b94505060606113dc89828a01611304565b935050608087013567ffffffffffffffff8111156113fd576113fc611080565b5b61140989828a01611328565b92509250509295509295509295565b7f4e4f5420415554484f52495a4544202121210000000000000000000000000000600082015250565b600061144e6012836111a0565b915061145982611418565b602082019050919050565b6000602082019050818103600083015261147d81611441565b9050919050565b7f4e487b7100000000000000000000000000000000000000000000000000000000600052603260045260246000fd5b7f4e487b7100000000000000000000000000000000000000000000000000000000600052601160045260246000fd5b60006114ed82611234565b91507fffffffffffffffffffffffffffffffffffffffffffffffffffffffffffffffff820361151f5761151e6114b3565b5b600182019050919050565b7f4e4f205253565020544f20434f4e4649524d0000000000000000000000000000600082015250565b60006115606012836111a0565b915061156b8261152a565b602082019050919050565b6000602082019050818103600083015261158f81611553565b9050919050565b7f5253565020414c524541445920434c41494d4544000000000000000000000000600082015250565b60006115cc6014836111a0565b91506115d782611596565b602082019050919050565b600060208201905081810360008301526115fb816115bf565b9050919050565b7f414c52454144592050414944204f5554205253565020524546554e4400000000600082015250565b6000611638601c836111a0565b915061164382611602565b602082019050919050565b600060208201905081810360008301526116678161162b565b9050919050565b600081905092915050565b50565b600061168960008361166e565b915061169482611679565b600082019050919050565b60006116aa8261167c565b9150819050919050565b7f4e487b7100000000000000000000000000000000000000000000000000000000600052603160045260246000fd5b7f4661696c656420746f2073656e64205253565020526566756e64204574686572600082015250565b60006117196020836111a0565b9150611724826116e3565b602082019050919050565b600060208201905081810360008301526117488161170c565b9050919050565b60006040820190506117646000830185611186565b6117716020830184611225565b9392505050565b600061178382611234565b915061178e83611234565b92508282019050808211156117a6576117a56114b3565b5b92915050565b7f544f4f204541524c5920544f2057495448445241570000000000000000000000600082015250565b60006117e26015836111a0565b91506117ed826117ac565b602082019050919050565b60006020820190508181036000830152611811816117d5565b9050919050565b7f4e4f5420415554484f52495a45442c204f6e6c79204556656e74204f776e657260008201527f2063616e20776974686472617700000000000000000000000000000000000000602082015250565b6000611874602d836111a0565b915061187f82611818565b604082019050919050565b600060208201905081810360008301526118a381611867565b9050919050565b60006118b582611234565b91506118c083611234565b92508282039050818111156118d8576118d76114b3565b5b92915050565b60006118e982611234565b91506118f483611234565b925082820261190281611234565b91508282048414831517611919576119186114b3565b5b5092915050565b7f5041594f5554204641494c45442c204661696c656420746f2073656e6420457460008201527f6865720000000000000000000000000000000000000000000000000000000000602082015250565b600061197c6023836111a0565b915061198782611920565b604082019050919050565b600060208201905081810360008301526119ab8161196f565b9050919050565b60006020820190506119c76000830184611186565b92915050565b7f494e53554646494349454e542046554e44530000000000000000000000000000600082015250565b6000611a036012836111a0565b9150611a0e826119cd565b602082019050919050565b60006020820190508181036000830152611a32816119f6565b9050919050565b7f4556454e54204841532054414b454e20504c4143450000000000000000000000600082015250565b6000611a6f6015836111a0565b9150611a7a82611a39565b602082019050919050565b60006020820190508181036000830152611a9e81611a62565b9050919050565b7f4556454e542046554c4c212e2054686973206576656e7420686173207265616360008201527f686564206d6178696d756d206361706163697479000000000000000000000000602082015250565b6000611b016034836111a0565b9150611b0c82611aa5565b604082019050919050565b60006020820190508181036000830152611b3081611af4565b9050919050565b7f414c524541445920524547495354455245440000000000000000000000000000600082015250565b6000611b6d6012836111a0565b9150611b7882611b37565b602082019050919050565b60006020820190508181036000830152611b9c81611b60565b9050919050565b7f4e487b7100000000000000000000000000000000000000000000000000000000600052602260045260246000fd5b60006002820490506001821680611bea57607f821691505b602082108103611bfd57611bfc611ba3565b5b50919050565b60008160601b9050919050565b6000611c1b82611c03565b9050919050565b6000611c2d82611c10565b9050919050565b611c45611c40826110db565b611c22565b82525050565b6000819050919050565b611c66611c6182611234565b611c4b565b82525050565b6000611c788289611c34565b601482019150611c888288611c34565b601482019150611c988287611c55565b602082019150611ca88286611c55565b602082019150611cb88285611c55565b602082019150611cc88284611c55565b602082019150819050979650505050505050565b7f4576656e7420416c726561647920526567697374657272656421212100000000600082015250565b6000611d12601c836111a0565b9150611d1d82611cdc565b602082019050919050565b60006020820190508181036000830152611d4181611d05565b9050919050565b7f4e487b7100000000000000000000000000000000000000000000000000000000600052604160045260246000fd5b60008190508160005260206000209050919050565b60006020601f8301049050919050565b600082821b905092915050565b600060088302611dd97fffffffffffffffffffffffffffffffffffffffffffffffffffffffffffffffff82611d9c565b611de38683611d9c565b95508019841693508086168417925050509392505050565b6000819050919050565b6000611e20611e1b611e1684611234565b611dfb565b611234565b9050919050565b6000819050919050565b611e3a83611e05565b611e4e611e4682611e27565b848454611da9565b825550505050565b600090565b611e63611e56565b611e6e818484611e31565b505050565b5b81811015611e9257611e87600082611e5b565b600181019050611e74565b5050565b601f821115611ed757611ea881611d77565b611eb184611d8c565b81016020851015611ec0578190505b611ed4611ecc85611d8c565b830182611e73565b50505b505050565b600082821c905092915050565b6000611efa60001984600802611edc565b1980831691505092915050565b6000611f138383611ee9565b9150826002028217905092915050565b611f2c82611195565b67ffffffffffffffff811115611f4557611f44611d48565b5b611f4f8254611bd2565b611f5a828285611e96565b600060209050601f831160018114611f8d5760008415611f7b578287015190505b611f858582611f07565b865550611fed565b601f198416611f9b86611d77565b60005b82811015611fc357848901518255600182019150602085019450602081019050611f9e565b86831015611fe05784890151611fdc601f891682611ee9565b8355505b6001600288020188555050505b505050505050565b82818337600083830152505050565b600061201083856111a0565b935061201d838584611ff5565b612026836111db565b840190509392505050565b600060e082019050612046600083018b611186565b612053602083018a611225565b612060604083018961123e565b61206d606083018861123e565b61207a608083018761123e565b61208760a083018661123e565b81810360c083015261209a818486612004565b9050999850505050505050505056fea2646970667358221220934572dc90e386e3f7cd8cf70c50ce1cb4e2b9ff36db821f63f765b7a21537e864736f6c63430008110033",
    "linkReferences": {},
    "deployedLinkReferences": {}
}