{
  "_format": "hh-sol-artifact-1",
  "contractName": "WeRsvp",
  "sourceName": "contracts/WeRsvp.sol",
  "abi": [
    {
      "anonymous": false,
      "inputs": [
        {
          "indexed": false,
          "internalType": "bytes32",
          "name": "eventId",
          "type": "bytes32"
        },
        {
          "indexed": false,
          "internalType": "address",
          "name": "attendeeAddress",
          "type": "address"
        }
      ],
      "name": "AttendeeConfirmed",
      "type": "event"
    },
    {
      "anonymous": false,
      "inputs": [
        {
          "indexed": false,
          "internalType": "uint128",
          "name": "errorCode",
          "type": "uint128"
        },
        {
          "indexed": false,
          "internalType": "string",
          "name": "errorContext",
          "type": "string"
        },
        {
          "indexed": false,
          "internalType": "string",
          "name": "errorMessage",
          "type": "string"
        }
      ],
      "name": "CapturedError",
      "type": "event"
    },
    {
      "anonymous": false,
      "inputs": [
        {
          "indexed": false,
          "internalType": "bytes32",
          "name": "eventId",
          "type": "bytes32"
        },
        {
          "indexed": false,
          "internalType": "address",
          "name": "creatorAddress",
          "type": "address"
        },
        {
          "indexed": false,
          "internalType": "uint256",
          "name": "eventStartTimestamp",
          "type": "uint256"
        },
        {
          "indexed": false,
          "internalType": "uint256",
          "name": "eventEndTimestamp",
          "type": "uint256"
        },
        {
          "indexed": false,
          "internalType": "uint256",
          "name": "maxCapacity",
          "type": "uint256"
        },
        {
          "indexed": false,
          "internalType": "uint256",
          "name": "deposit",
          "type": "uint256"
        },
        {
          "indexed": false,
          "internalType": "string",
          "name": "eventDataCID",
          "type": "string"
        }
      ],
      "name": "NewEventCreated",
      "type": "event"
    },
    {
      "anonymous": false,
      "inputs": [
        {
          "indexed": false,
          "internalType": "bytes32",
          "name": "eventId",
          "type": "bytes32"
        },
        {
          "indexed": false,
          "internalType": "address",
          "name": "registrantAddress",
          "type": "address"
        }
      ],
      "name": "NewRSVPcreated",
      "type": "event"
    },
    {
      "anonymous": false,
      "inputs": [
        {
          "indexed": false,
          "internalType": "bytes32",
          "name": "eventId",
          "type": "bytes32"
        }
      ],
      "name": "UnclaimedDepositsWithdrawn",
      "type": "event"
    },
    {
      "inputs": [
        {
          "internalType": "bytes32",
          "name": "_eventId",
          "type": "bytes32"
        }
      ],
      "name": "confirmAllAttendees",
      "outputs": [],
      "stateMutability": "nonpayable",
      "type": "function"
    },
    {
      "inputs": [
        {
          "internalType": "bytes32",
          "name": "_eventId",
          "type": "bytes32"
        },
        {
          "internalType": "address",
          "name": "_attendee",
          "type": "address"
        }
      ],
      "name": "confirmAttendee",
      "outputs": [],
      "stateMutability": "nonpayable",
      "type": "function"
    },
    {
      "inputs": [
        {
          "internalType": "uint256",
          "name": "_eventStartTimestamp",
          "type": "uint256"
        },
        {
          "internalType": "uint256",
          "name": "_eventEndTimestamp",
          "type": "uint256"
        },
        {
          "internalType": "uint256",
          "name": "_deposit",
          "type": "uint256"
        },
        {
          "internalType": "uint256",
          "name": "_maxCapacity",
          "type": "uint256"
        },
        {
          "internalType": "string",
          "name": "_eventDataCID",
          "type": "string"
        }
      ],
      "name": "createNewEvent",
      "outputs": [],
      "stateMutability": "nonpayable",
      "type": "function"
    },
    {
      "inputs": [
        {
          "internalType": "bytes32",
          "name": "_eventId",
          "type": "bytes32"
        }
      ],
      "name": "createNewRsvp",
      "outputs": [],
      "stateMutability": "payable",
      "type": "function"
    },
    {
      "inputs": [
        {
          "internalType": "bytes32",
          "name": "",
          "type": "bytes32"
        }
      ],
      "name": "eventsMap",
      "outputs": [
        {
          "internalType": "bytes32",
          "name": "eventId",
          "type": "bytes32"
        },
        {
          "internalType": "string",
          "name": "eventDataCID",
          "type": "string"
        },
        {
          "internalType": "address",
          "name": "eventOwner",
          "type": "address"
        },
        {
          "internalType": "uint256",
          "name": "eventStartTimestamp",
          "type": "uint256"
        },
        {
          "internalType": "uint256",
          "name": "eventEndTimestamp",
          "type": "uint256"
        },
        {
          "internalType": "uint256",
          "name": "deposit",
          "type": "uint256"
        },
        {
          "internalType": "uint256",
          "name": "maxCapacity",
          "type": "uint256"
        },
        {
          "internalType": "bool",
          "name": "refundPaidOut",
          "type": "bool"
        }
      ],
      "stateMutability": "view",
      "type": "function"
    },
    {
      "inputs": [
        {
          "internalType": "bytes32",
          "name": "_eventId",
          "type": "bytes32"
        }
      ],
      "name": "withdrawUnclaimedDeposits",
      "outputs": [],
      "stateMutability": "nonpayable",
      "type": "function"
    }
  ],
  "bytecode": "0x608060405234801561001057600080fd5b50613280806100206000396000f3fe6080604052600436106100555760003560e01c80636dcdf2cd1461005a5780637974757114610083578063acdbe012146100ac578063b0ca5283146100d5578063c945191a146100f1578063d90974af14610135575b600080fd5b34801561006657600080fd5b50610081600480360381019061007c919061172d565b61015e565b005b34801561008f57600080fd5b506100aa60048036038101906100a5919061176d565b610861565b005b3480156100b857600080fd5b506100d360048036038101906100ce919061176d565b610c7a565b005b6100ef60048036038101906100ea919061176d565b610e27565b005b3480156100fd57600080fd5b506101186004803603810190610113919061176d565b611211565b60405161012c98979695949392919061187c565b60405180910390f35b34801561014157600080fd5b5061015c60048036038101906101579190611992565b61130e565b005b600080600084815260200190815260200160002090508060020160009054906101000a900473ffffffffffffffffffffffffffffffffffffffff1673ffffffffffffffffffffffffffffffffffffffff163373ffffffffffffffffffffffffffffffffffffffff1614610205577f5ae13bb48e989796ae9848b8afd2fbab73eb786dbd1a6727292eab655741f597610fab6040516101fc9190611b71565b60405180910390a15b8060020160009054906101000a900473ffffffffffffffffffffffffffffffffffffffff1673ffffffffffffffffffffffffffffffffffffffff163373ffffffffffffffffffffffffffffffffffffffff1614610297576040517f08c379a000000000000000000000000000000000000000000000000000000000815260040161028e90611bfe565b60405180910390fd5b600080600090505b8260070180549050811015610378578373ffffffffffffffffffffffffffffffffffffffff168360070182815481106102db576102da611c1e565b5b9060005260206000200160009054906101000a900473ffffffffffffffffffffffffffffffffffffffff1673ffffffffffffffffffffffffffffffffffffffff16036103655782600701818154811061033757610336611c1e565b5b9060005260206000200160009054906101000a900473ffffffffffffffffffffffffffffffffffffffff1691505b808061037090611c7c565b91505061029f565b508273ffffffffffffffffffffffffffffffffffffffff168173ffffffffffffffffffffffffffffffffffffffff16146103e6577f5ae13bb48e989796ae9848b8afd2fbab73eb786dbd1a6727292eab655741f597610fc96040516103dd9190611d97565b60405180910390a15b8273ffffffffffffffffffffffffffffffffffffffff168173ffffffffffffffffffffffffffffffffffffffff1614610454576040517f08c379a000000000000000000000000000000000000000000000000000000000815260040161044b90611dd8565b60405180910390fd5b60005b82600801805490508110156105d4578373ffffffffffffffffffffffffffffffffffffffff1683600801828154811061049357610492611c1e565b5b9060005260206000200160009054906101000a900473ffffffffffffffffffffffffffffffffffffffff1673ffffffffffffffffffffffffffffffffffffffff1603610513577f5ae13bb48e989796ae9848b8afd2fbab73eb786dbd1a6727292eab655741f597610ffb60405161050a9190611ecb565b60405180910390a15b8373ffffffffffffffffffffffffffffffffffffffff168360080182815481106105405761053f611c1e565b5b9060005260206000200160009054906101000a900473ffffffffffffffffffffffffffffffffffffffff1673ffffffffffffffffffffffffffffffffffffffff16036105c1576040517f08c379a00000000000000000000000000000000000000000000000000000000081526004016105b890611f0c565b60405180910390fd5b80806105cc90611c7c565b915050610457565b50600015158260090160009054906101000a900460ff1615151461062c577f5ae13bb48e989796ae9848b8afd2fbab73eb786dbd1a6727292eab655741f597610ffb6040516106239190611f78565b60405180910390a15b600015158260090160009054906101000a900460ff16151514610684576040517f08c379a000000000000000000000000000000000000000000000000000000000815260040161067b90611fb9565b60405180910390fd5b81600801839080600181540180825580915050600190039060005260206000200160009091909190916101000a81548173ffffffffffffffffffffffffffffffffffffffff021916908373ffffffffffffffffffffffffffffffffffffffff16021790555060008373ffffffffffffffffffffffffffffffffffffffff1683600501546040516107139061200a565b60006040518083038185875af1925050503d8060008114610750576040519150601f19603f3d011682016040523d82523d6000602084013e610755565b606091505b50509050806107e157826008018054806107725761077161201f565b5b6001900381819060005260206000200160006101000a81549073ffffffffffffffffffffffffffffffffffffffff021916905590557f5ae13bb48e989796ae9848b8afd2fbab73eb786dbd1a6727292eab655741f59761107d6040516107d89190612147565b60405180910390a15b80610821576040517f08c379a000000000000000000000000000000000000000000000000000000000815260040161081890612188565b60405180910390fd5b7f3774216d9ccae81e2d95a76e252cf8e445d632f94b4697bea33d4568982f333685856040516108529291906121a8565b60405180910390a15050505050565b600080600083815260200190815260200160002090508060090160009054906101000a900460ff16156108c8577f5ae13bb48e989796ae9848b8afd2fbab73eb786dbd1a6727292eab655741f597610ffb6040516108bf9190612243565b60405180910390a15b8060090160009054906101000a900460ff161561091a576040517f08c379a000000000000000000000000000000000000000000000000000000000815260040161091190611fb9565b60405180910390fd5b806004015462093a804261092e9190612284565b1161096d577f5ae13bb48e989796ae9848b8afd2fbab73eb786dbd1a6727292eab655741f597610fa160405161096491906123b1565b60405180910390a15b806004015462093a80426109819190612284565b10156109c2576040517f08c379a00000000000000000000000000000000000000000000000000000000081526004016109b9906123f2565b60405180910390fd5b8060020160009054906101000a900473ffffffffffffffffffffffffffffffffffffffff1673ffffffffffffffffffffffffffffffffffffffff163373ffffffffffffffffffffffffffffffffffffffff1614610a53577f5ae13bb48e989796ae9848b8afd2fbab73eb786dbd1a6727292eab655741f597610fab604051610a4a91906124f6565b60405180910390a15b8060020160009054906101000a900473ffffffffffffffffffffffffffffffffffffffff1673ffffffffffffffffffffffffffffffffffffffff163373ffffffffffffffffffffffffffffffffffffffff1614610ae5576040517f08c379a0000000000000000000000000000000000000000000000000000000008152600401610adc90612537565b60405180910390fd5b600081600801805490508260070180549050610b019190612557565b90506000826005015482610b15919061258b565b905060018360090160006101000a81548160ff02191690831515021790555060003373ffffffffffffffffffffffffffffffffffffffff1682604051610b5a9061200a565b60006040518083038185875af1925050503d8060008114610b97576040519150601f19603f3d011682016040523d82523d6000602084013e610b9c565b606091505b5050905080610bfc5760018460090160006101000a81548160ff0219169083151502179055507f5ae13bb48e989796ae9848b8afd2fbab73eb786dbd1a6727292eab655741f59761107d604051610bf391906126b1565b60405180910390a15b80610c3c576040517f08c379a0000000000000000000000000000000000000000000000000000000008152600401610c3390612764565b60405180910390fd5b7ff44a52abf941399676dcb8a1df017068d76a870eab69e62d00c4eca9f6c8e79285604051610c6b9190612784565b60405180910390a15050505050565b600080600083815260200190815260200160002090508060020160009054906101000a900473ffffffffffffffffffffffffffffffffffffffff1673ffffffffffffffffffffffffffffffffffffffff163373ffffffffffffffffffffffffffffffffffffffff1614610d21577f5ae13bb48e989796ae9848b8afd2fbab73eb786dbd1a6727292eab655741f597610fab604051610d189190612811565b60405180910390a15b8060020160009054906101000a900473ffffffffffffffffffffffffffffffffffffffff1673ffffffffffffffffffffffffffffffffffffffff163373ffffffffffffffffffffffffffffffffffffffff1614610db3576040517f08c379a0000000000000000000000000000000000000000000000000000000008152600401610daa90611bfe565b60405180910390fd5b60005b8160070180549050811015610e2257610e0f83836007018381548110610ddf57610dde611c1e565b5b9060005260206000200160009054906101000a900473ffffffffffffffffffffffffffffffffffffffff1661015e565b8080610e1a90611c7c565b915050610db6565b505050565b6000806000838152602001908152602001600020905080600501543414610e82577f5ae13bb48e989796ae9848b8afd2fbab73eb786dbd1a6727292eab655741f597610fb6604051610e799190612925565b60405180910390a15b80600501543414610ec8576040517f08c379a0000000000000000000000000000000000000000000000000000000008152600401610ebf90612966565b60405180910390fd5b80600401544210610f0d577f5ae13bb48e989796ae9848b8afd2fbab73eb786dbd1a6727292eab655741f597611088604051610f049190612a59565b60405180910390a15b8060040154421115610f54576040517f08c379a0000000000000000000000000000000000000000000000000000000008152600401610f4b90612a9a565b60405180910390fd5b8060060154816007018054905010610fa0577f5ae13bb48e989796ae9848b8afd2fbab73eb786dbd1a6727292eab655741f597611088604051610f979190612b2c565b60405180910390a15b806006015481600701805490501115610fee576040517f08c379a0000000000000000000000000000000000000000000000000000000008152600401610fe590612b6d565b60405180910390fd5b60005b816007018054905081101561116e573373ffffffffffffffffffffffffffffffffffffffff1682600701828154811061102d5761102c611c1e565b5b9060005260206000200160009054906101000a900473ffffffffffffffffffffffffffffffffffffffff1673ffffffffffffffffffffffffffffffffffffffff16036110ad577f5ae13bb48e989796ae9848b8afd2fbab73eb786dbd1a6727292eab655741f597610ffc6040516110a49190612c60565b60405180910390a15b3373ffffffffffffffffffffffffffffffffffffffff168260070182815481106110da576110d9611c1e565b5b9060005260206000200160009054906101000a900473ffffffffffffffffffffffffffffffffffffffff1673ffffffffffffffffffffffffffffffffffffffff160361115b576040517f08c379a000000000000000000000000000000000000000000000000000000000815260040161115290612ca1565b60405180910390fd5b808061116690611c7c565b915050610ff1565b5080600701339080600181540180825580915050600190039060005260206000200160009091909190916101000a81548173ffffffffffffffffffffffffffffffffffffffff021916908373ffffffffffffffffffffffffffffffffffffffff1602179055507fe3fc8829d97005c085e41dad5e602371a8ceb3ee82f8e58ff29374f6d52d5a8b82336040516112059291906121a8565b60405180910390a15050565b600060205280600052604060002060009150905080600001549080600101805461123a90612cf0565b80601f016020809104026020016040519081016040528092919081815260200182805461126690612cf0565b80156112b35780601f10611288576101008083540402835291602001916112b3565b820191906000526020600020905b81548152906001019060200180831161129657829003601f168201915b5050505050908060020160009054906101000a900473ffffffffffffffffffffffffffffffffffffffff16908060030154908060040154908060050154908060060154908060090160009054906101000a900460ff16905088565b600033308888888860405160200161132b96959493929190612d8a565b6040516020818303038152906040528051906020012090506000806000838152602001908152602001600020600301541461139a577f5ae13bb48e989796ae9848b8afd2fbab73eb786dbd1a6727292eab655741f597610ffb6040516113919190612e92565b60405180910390a15b600080600083815260200190815260200160002060030154146113f2576040517f08c379a00000000000000000000000000000000000000000000000000000000081526004016113e990612ed3565b60405180910390fd5b60608060405180610140016040528084815260200186868080601f016020809104026020016040519081016040528093929190818152602001838380828437600081840152601f19601f8201169050808301925050505050505081526020013373ffffffffffffffffffffffffffffffffffffffff1681526020018a8152602001898152602001888152602001878152602001838152602001828152602001600015158152506000808581526020019081526020016000206000820151816000015560208201518160010190816114c991906130c4565b5060408201518160020160006101000a81548173ffffffffffffffffffffffffffffffffffffffff021916908373ffffffffffffffffffffffffffffffffffffffff160217905550606082015181600301556080820151816004015560a0820151816005015560c0820151816006015560e08201518160070190805190602001906115559291906115e8565b506101008201518160080190805190602001906115739291906115e8565b506101208201518160090160006101000a81548160ff0219169083151502179055509050507f9c1a43dce4ba4b3b7fda93a197fbf8b4886da206e61a2301565b967bfa111e6383338b8b8a8c8b8b6040516115d59897969594939291906131d2565b60405180910390a1505050505050505050565b828054828255906000526020600020908101928215611661579160200282015b828111156116605782518260006101000a81548173ffffffffffffffffffffffffffffffffffffffff021916908373ffffffffffffffffffffffffffffffffffffffff16021790555091602001919060010190611608565b5b50905061166e9190611672565b5090565b5b8082111561168b576000816000905550600101611673565b5090565b600080fd5b600080fd5b6000819050919050565b6116ac81611699565b81146116b757600080fd5b50565b6000813590506116c9816116a3565b92915050565b600073ffffffffffffffffffffffffffffffffffffffff82169050919050565b60006116fa826116cf565b9050919050565b61170a816116ef565b811461171557600080fd5b50565b60008135905061172781611701565b92915050565b600080604083850312156117445761174361168f565b5b6000611752858286016116ba565b925050602061176385828601611718565b9150509250929050565b6000602082840312156117835761178261168f565b5b6000611791848285016116ba565b91505092915050565b6117a381611699565b82525050565b600081519050919050565b600082825260208201905092915050565b60005b838110156117e35780820151818401526020810190506117c8565b60008484015250505050565b6000601f19601f8301169050919050565b600061180b826117a9565b61181581856117b4565b93506118258185602086016117c5565b61182e816117ef565b840191505092915050565b611842816116ef565b82525050565b6000819050919050565b61185b81611848565b82525050565b60008115159050919050565b61187681611861565b82525050565b600061010082019050611892600083018b61179a565b81810360208301526118a4818a611800565b90506118b36040830189611839565b6118c06060830188611852565b6118cd6080830187611852565b6118da60a0830186611852565b6118e760c0830185611852565b6118f460e083018461186d565b9998505050505050505050565b61190a81611848565b811461191557600080fd5b50565b60008135905061192781611901565b92915050565b600080fd5b600080fd5b600080fd5b60008083601f8401126119525761195161192d565b5b8235905067ffffffffffffffff81111561196f5761196e611932565b5b60208301915083600182028301111561198b5761198a611937565b5b9250929050565b60008060008060008060a087890312156119af576119ae61168f565b5b60006119bd89828a01611918565b96505060206119ce89828a01611918565b95505060406119df89828a01611918565b94505060606119f089828a01611918565b935050608087013567ffffffffffffffff811115611a1157611a10611694565b5b611a1d89828a0161193c565b92509250509295509295509295565b6000819050919050565b60006fffffffffffffffffffffffffffffffff82169050919050565b6000819050919050565b6000611a77611a72611a6d84611a2c565b611a52565b611a36565b9050919050565b611a8781611a5c565b82525050565b7f636f6e6669726d417474656e6465654572726f723a20556e417574686f72697360008201527f6564000000000000000000000000000000000000000000000000000000000000602082015250565b6000611ae96022836117b4565b9150611af482611a8d565b604082019050919050565b7f4e4f5420415554484f52495a4544202121212e204e6f74204576656e74206f7760008201527f6e65720000000000000000000000000000000000000000000000000000000000602082015250565b6000611b5b6023836117b4565b9150611b6682611aff565b604082019050919050565b6000606082019050611b866000830184611a7e565b8181036020830152611b9781611adc565b90508181036040830152611baa81611b4e565b905092915050565b7f4e4f5420415554484f52495a4544202121210000000000000000000000000000600082015250565b6000611be86012836117b4565b9150611bf382611bb2565b602082019050919050565b60006020820190508181036000830152611c1781611bdb565b9050919050565b7f4e487b7100000000000000000000000000000000000000000000000000000000600052603260045260246000fd5b7f4e487b7100000000000000000000000000000000000000000000000000000000600052601160045260246000fd5b6000611c8782611848565b91507fffffffffffffffffffffffffffffffffffffffffffffffffffffffffffffffff8203611cb957611cb8611c4d565b5b600182019050919050565b6000819050919050565b6000611ce9611ce4611cdf84611cc4565b611a52565b611a36565b9050919050565b611cf981611cce565b82525050565b7f636f6e6669726d417474656e6465654572726f723a204e6f7420466f756e6400600082015250565b6000611d35601f836117b4565b9150611d4082611cff565b602082019050919050565b7f4e4f205253565020544f20434f4e4649524d0000000000000000000000000000600082015250565b6000611d816012836117b4565b9150611d8c82611d4b565b602082019050919050565b6000606082019050611dac6000830184611cf0565b8181036020830152611dbd81611d28565b90508181036040830152611dd081611d74565b905092915050565b60006020820190508181036000830152611df181611d74565b9050919050565b6000819050919050565b6000611e1d611e18611e1384611df8565b611a52565b611a36565b9050919050565b611e2d81611e02565b82525050565b7f636f6e6669726d417474656e6465654572726f723a20436f6e666c6963740000600082015250565b6000611e69601e836117b4565b9150611e7482611e33565b602082019050919050565b7f5253565020414c524541445920434c41494d4544000000000000000000000000600082015250565b6000611eb56014836117b4565b9150611ec082611e7f565b602082019050919050565b6000606082019050611ee06000830184611e24565b8181036020830152611ef181611e5c565b90508181036040830152611f0481611ea8565b905092915050565b60006020820190508181036000830152611f2581611ea8565b9050919050565b7f414c52454144592050414944204f5554205253565020524546554e4400000000600082015250565b6000611f62601c836117b4565b9150611f6d82611f2c565b602082019050919050565b6000606082019050611f8d6000830184611e24565b8181036020830152611f9e81611e5c565b90508181036040830152611fb181611f55565b905092915050565b60006020820190508181036000830152611fd281611f55565b9050919050565b600081905092915050565b50565b6000611ff4600083611fd9565b9150611fff82611fe4565b600082019050919050565b600061201582611fe7565b9150819050919050565b7f4e487b7100000000000000000000000000000000000000000000000000000000600052603160045260246000fd5b6000819050919050565b600061207361206e6120698461204e565b611a52565b611a36565b9050919050565b61208381612058565b82525050565b7f636f6e6669726d417474656e6465654572726f723a20556e70726f636573736160008201527f626c650000000000000000000000000000000000000000000000000000000000602082015250565b60006120e56023836117b4565b91506120f082612089565b604082019050919050565b7f4661696c656420746f2073656e64205253565020526566756e64204574686572600082015250565b60006121316020836117b4565b915061213c826120fb565b602082019050919050565b600060608201905061215c600083018461207a565b818103602083015261216d816120d8565b9050818103604083015261218081612124565b905092915050565b600060208201905081810360008301526121a181612124565b9050919050565b60006040820190506121bd600083018561179a565b6121ca6020830184611839565b9392505050565b7f7769746864726177556e636c61696d65644465706f736974734572726f723a2060008201527f436f6e666c696374000000000000000000000000000000000000000000000000602082015250565b600061222d6028836117b4565b9150612238826121d1565b604082019050919050565b60006060820190506122586000830184611e24565b818103602083015261226981612220565b9050818103604083015261227c81611f55565b905092915050565b600061228f82611848565b915061229a83611848565b92508282019050808211156122b2576122b1611c4d565b5b92915050565b6000819050919050565b60006122dd6122d86122d3846122b8565b611a52565b611a36565b9050919050565b6122ed816122c2565b82525050565b7f7769746864726177556e636c61696d65644465706f736974734572726f723a2060008201527f4261642052657175657374000000000000000000000000000000000000000000602082015250565b600061234f602b836117b4565b915061235a826122f3565b604082019050919050565b7f544f4f204541524c5920544f2057495448445241570000000000000000000000600082015250565b600061239b6015836117b4565b91506123a682612365565b602082019050919050565b60006060820190506123c660008301846122e4565b81810360208301526123d781612342565b905081810360408301526123ea8161238e565b905092915050565b6000602082019050818103600083015261240b8161238e565b9050919050565b7f7769746864726177556e636c61696d65644465706f736974734572726f723a2060008201527f556e617574686f72697a65640000000000000000000000000000000000000000602082015250565b600061246e602c836117b4565b915061247982612412565b604082019050919050565b7f4e4f5420415554484f52495a45442c204f6e6c79204556656e74204f776e657260008201527f2063616e20776974686472617700000000000000000000000000000000000000602082015250565b60006124e0602d836117b4565b91506124eb82612484565b604082019050919050565b600060608201905061250b6000830184611a7e565b818103602083015261251c81612461565b9050818103604083015261252f816124d3565b905092915050565b60006020820190508181036000830152612550816124d3565b9050919050565b600061256282611848565b915061256d83611848565b925082820390508181111561258557612584611c4d565b5b92915050565b600061259682611848565b91506125a183611848565b92508282026125af81611848565b915082820484148315176125c6576125c5611c4d565b5b5092915050565b7f7769746864726177556e636c61696d65644465706f736974734572726f723a2060008201527f556e70726f6365737361626c6500000000000000000000000000000000000000602082015250565b6000612629602d836117b4565b9150612634826125cd565b604082019050919050565b7f5041594f5554204641494c45442c204661696c656420746f2073656e6420457460008201527f6865000000000000000000000000000000000000000000000000000000000000602082015250565b600061269b6022836117b4565b91506126a68261263f565b604082019050919050565b60006060820190506126c6600083018461207a565b81810360208301526126d78161261c565b905081810360408301526126ea8161268e565b905092915050565b7f5041594f5554204641494c45442c204661696c656420746f2073656e6420457460008201527f6865720000000000000000000000000000000000000000000000000000000000602082015250565b600061274e6023836117b4565b9150612759826126f2565b604082019050919050565b6000602082019050818103600083015261277d81612741565b9050919050565b6000602082019050612799600083018461179a565b92915050565b7f636f6e6669726d416c6c417474656e646565734572726f723a20556e6175746860008201527f6f72697a65640000000000000000000000000000000000000000000000000000602082015250565b60006127fb6026836117b4565b91506128068261279f565b604082019050919050565b60006060820190506128266000830184611a7e565b8181036020830152612837816127ee565b9050818103604083015261284a81611bdb565b905092915050565b6000819050919050565b600061287761287261286d84612852565b611a52565b611a36565b9050919050565b6128878161285c565b82525050565b7f6e6577525356504572726f723a205061796d656e742052657175697265640000600082015250565b60006128c3601e836117b4565b91506128ce8261288d565b602082019050919050565b7f494e53554646494349454e542046554e44530000000000000000000000000000600082015250565b600061290f6012836117b4565b915061291a826128d9565b602082019050919050565b600060608201905061293a600083018461287e565b818103602083015261294b816128b6565b9050818103604083015261295e81612902565b905092915050565b6000602082019050818103600083015261297f81612902565b9050919050565b6000819050919050565b60006129ab6129a66129a184612986565b611a52565b611a36565b9050919050565b6129bb81612990565b82525050565b7f6e6577525356504572726f723a204c6f636b6564000000000000000000000000600082015250565b60006129f76014836117b4565b9150612a02826129c1565b602082019050919050565b7f4556454e54204841532054414b454e20504c4143450000000000000000000000600082015250565b6000612a436015836117b4565b9150612a4e82612a0d565b602082019050919050565b6000606082019050612a6e60008301846129b2565b8181036020830152612a7f816129ea565b90508181036040830152612a9281612a36565b905092915050565b60006020820190508181036000830152612ab381612a36565b9050919050565b7f4556454e542046554c4c212e2054686973206576656e7420686173207265616360008201527f686564206d6178696d756d206361706163697479000000000000000000000000602082015250565b6000612b166034836117b4565b9150612b2182612aba565b604082019050919050565b6000606082019050612b4160008301846129b2565b8181036020830152612b52816129ea565b90508181036040830152612b6581612b09565b905092915050565b60006020820190508181036000830152612b8681612b09565b9050919050565b6000819050919050565b6000612bb2612bad612ba884612b8d565b611a52565b611a36565b9050919050565b612bc281612b97565b82525050565b7f6e6577525356504572726f723a20436f6e666c69637400000000000000000000600082015250565b6000612bfe6016836117b4565b9150612c0982612bc8565b602082019050919050565b7f414c524541445920524547495354455245440000000000000000000000000000600082015250565b6000612c4a6012836117b4565b9150612c5582612c14565b602082019050919050565b6000606082019050612c756000830184612bb9565b8181036020830152612c8681612bf1565b90508181036040830152612c9981612c3d565b905092915050565b60006020820190508181036000830152612cba81612c3d565b9050919050565b7f4e487b7100000000000000000000000000000000000000000000000000000000600052602260045260246000fd5b60006002820490506001821680612d0857607f821691505b602082108103612d1b57612d1a612cc1565b5b50919050565b60008160601b9050919050565b6000612d3982612d21565b9050919050565b6000612d4b82612d2e565b9050919050565b612d63612d5e826116ef565b612d40565b82525050565b6000819050919050565b612d84612d7f82611848565b612d69565b82525050565b6000612d968289612d52565b601482019150612da68288612d52565b601482019150612db68287612d73565b602082019150612dc68286612d73565b602082019150612dd68285612d73565b602082019150612de68284612d73565b602082019150819050979650505050505050565b7f6372656174654576656e744572726f723a204261642052657175657374000000600082015250565b6000612e30601d836117b4565b9150612e3b82612dfa565b602082019050919050565b7f4576656e7420416c726561647920526567697374657272656421212100000000600082015250565b6000612e7c601c836117b4565b9150612e8782612e46565b602082019050919050565b6000606082019050612ea76000830184611e24565b8181036020830152612eb881612e23565b90508181036040830152612ecb81612e6f565b905092915050565b60006020820190508181036000830152612eec81612e6f565b9050919050565b7f4e487b7100000000000000000000000000000000000000000000000000000000600052604160045260246000fd5b60008190508160005260206000209050919050565b60006020601f8301049050919050565b600082821b905092915050565b600060088302612f847fffffffffffffffffffffffffffffffffffffffffffffffffffffffffffffffff82612f47565b612f8e8683612f47565b95508019841693508086168417925050509392505050565b6000612fc1612fbc612fb784611848565b611a52565b611848565b9050919050565b6000819050919050565b612fdb83612fa6565b612fef612fe782612fc8565b848454612f54565b825550505050565b600090565b613004612ff7565b61300f818484612fd2565b505050565b5b8181101561303357613028600082612ffc565b600181019050613015565b5050565b601f8211156130785761304981612f22565b61305284612f37565b81016020851015613061578190505b61307561306d85612f37565b830182613014565b50505b505050565b600082821c905092915050565b600061309b6000198460080261307d565b1980831691505092915050565b60006130b4838361308a565b9150826002028217905092915050565b6130cd826117a9565b67ffffffffffffffff8111156130e6576130e5612ef3565b5b6130f08254612cf0565b6130fb828285613037565b600060209050601f83116001811461312e576000841561311c578287015190505b61312685826130a8565b86555061318e565b601f19841661313c86612f22565b60005b828110156131645784890151825560018201915060208501945060208101905061313f565b86831015613181578489015161317d601f89168261308a565b8355505b6001600288020188555050505b505050505050565b82818337600083830152505050565b60006131b183856117b4565b93506131be838584613196565b6131c7836117ef565b840190509392505050565b600060e0820190506131e7600083018b61179a565b6131f4602083018a611839565b6132016040830189611852565b61320e6060830188611852565b61321b6080830187611852565b61322860a0830186611852565b81810360c083015261323b8184866131a5565b9050999850505050505050505056fea2646970667358221220fa3f5281f1dbe5e195ad5db793e9a6fbbb80472dafb01cd66d510b4dd1bdbce564736f6c63430008110033",
  "linkReferences": {},
  "deployedLinkReferences": {}
}